:020000040801F1
:10C0000000500020B5C2010891C2010893C2010886
:10C0100095C2010897C2010899C2010800000000FA
:10C020000000000000000000000000009BC20108AA
:10C030009DC20108000000009FC20108A1C20108C2
:10C04000FDC20108FDC20108FDC20108FDC20108D0
:10C05000FDC20108FDC20108FDC20108FDC20108C0
:10C06000FDC20108FDC20108FDC20108FDC20108B0
:10C07000FDC20108FDC20108FDC20108FDC20108A0
:10C08000FDC20108FDC20108FDC20108FDC2010890
:10C09000A5C20108FDC20108FDC20108FDC20108D8
:10C0A000FDC20108FDC20108FDC20108FDC2010870
:10C0B000FDC20108FDC20108FDC20108FDC2010860
:10C0C000FDC20108FDC20108FDC20108FDC2010850
:10C0D000FDC20108FDC20108FDC20108FDC2010840
:10C0E000FDC20108FDC20108FDC2010800000000F8
:10C0F0000000000000000000000000000000000040
:0CC1000000000000000000005FF808F1E3
:10C10C0010B5054C237833B9044B13B10448AFF385
:10C11C0000800123237010BDDC0000200000000013
:10C12C00E4F1010808B5034B1BB103490348AFF315
:10C13C00008008BD00000000E0000020E4F10108D0
:10C14C00034613F8012B002AFBD1181A013870474B
:10C15C0030B595B0142200210CA803F011F814226C
:10C16C00102500210DEB020003F00AF82A460021ED
:10C17C0001A803F005F802244FF480330122CDE925
:10C18C001143CDE90A234FF4E0130AA80E9213933E
:10C19C0001F0D4F808B172B6FEE70F23CDE90534EF
:10C1AC004FF480630790CDE90830214605A801F0D3
:10C1BC0087FA08B172B6FEE7049001A8019501F068
:10C1CC001BFB08B172B6FEE715B030BD7FB500F0B1
:10C1DC00B5F8FFF7BDFF1022002102A802F0D0FF36
:10C1EC00144B4FF400719A69134842F020029A6183
:10C1FC009A6902F020020092009A9A6942F00402B5
:10C20C009A619B69002203F004030193019B00F0E7
:10C21C0003FA4FF4007201230021CDE9022302231B
:10C22C000548CDE9041302A900F022F902F008FE3A
:10C23C00FEE700BF001002400008014072B6FEE7A6
:10C24C000E4B82B09A6942F001029A619A6902F02F
:10C25C0001020092009ADA6942F08052DA61DB69DD
:10C26C00074A03F080530193019B536823F0E0636A
:10C27C0043F00073536002B0704700BF00100240DF
:10C28C0000000140FEE7FEE7FEE7FEE7FEE7704731
:10C29C007047704700F064B8014800F06BBA00BFFB
:10C2AC00E00A0020704700000C480D490D4A00239D
:10C2BC0002E0D458C4500433C4188C42F9D30A4A4F
:10C2CC000A4C002301E013600432A242FBD3FFF7B7
:10C2DC00E9FF02F05DFFFFF779FF704700000020D7
:10C2EC00DC000020A0F20108DC000020B80D0020CA
:10C2FC00FEE7000038B50E4B05461A784FF47A73FA
:10C30C00B3FBF2F30B4A1068B0FBF3F000F09CF8AF
:10C31C00044658B90F2D09D8024629464FF0FF3074
:10C32C0000F054F82046044B1D6038BD0120FCE79A
:10C33C00040000200000002008000020074A08B577
:10C34C001368032043F01003136000F02DF80F2046
:10C35C00FFF7D0FFFFF774FF002008BD002002405C
:10C36C00034A044B11681B780B441360704700BFE1
:10C37C00F800002004000020014B1868704700BF33
:10C38C00F800002038B50446FFF7F6FF0546631C9D
:10C39C001EBF044B1B78E418FFF7EEFF431BA342B0
:10C3AC00FAD338BD0400002007490302CA6803F41D
:10C3BC00E06322F4E0621204120C134343F0BF63F7
:10C3CC0043F40033CB60704700ED00E0154B30B503
:10C3DC00DC68C4F30224C4F10703251D042B28BF19
:10C3EC000423062D4FF0FF3594BF0024033C05FABF
:10C3FC0003F321EA0303A54022EA0502A340002827
:10C40C0043EA0203ACBF00F16040074A4FEA031352
:10C41C00DBB2ABBF00F5614000F00F0080F80033D9
:10C42C00135430BD00ED00E014ED00E0002807DBF4
:10C43C0001234109034A00F01F00834042F82130D8
:10C44C00704700BF00E100E00138B0F1807F0BD2F3
:10C45C004FF0E023F021054A586182F823100020A8
:10C46C00072298611A6170470120704700ED00E0C7
:10C47C002DE9F74F00244FF00F0E2646DFF884C14C
:10C48C00614B00F104080A6832FA06F502D103B0D8
:10C49C00BDE8F08F012505FA06F702EA070537EA31
:10C4AC00020276D14A68032A07D8013A022A00F21E
:10C4BC008380DFE802F091969C00122A00F09480B1
:10C4CC0069D8112A00F08A80FF2D94BF8146C1469D
:10C4DC004FEA8602D9F8007088BF203A0EFA02FAA9
:10C4EC0027EA0A0704FA02F21743C9F80070D1F8D8
:10C4FC00049019F0805F4CD0DCF8182026F003076C
:10C50C0042F00102CCF81820DCF8182007F1804723
:10C51C0002F00102019207F5803706F0030A019A36
:10C52C004FEA8A0ABA680EFA0AFB22EA0B0B374A60
:10C53C00904260D002F5806290425ED002F580623B
:10C54C0090425CD002F58062904214BF0422032218
:10C55C0002FA0AF242EA0B02BA609A6819F4801FD6
:10C56C0014BF2A43AA439A60DA6819F4001F14BF57
:10C57C002A43AA43DA605A6819F4003F14BF2A43CD
:10C58C00AA435A601A6819F4803F14BF2A43AA437D
:10C59C001A60013677E7DFF878904A450CD014D84A
:10C5AC00A9F580194A4507D009F570294A4503D0E9
:10C5BC00A9F580194A4587D18A68D2B1012A4FF072
:10C5CC0008040CBF076147617EE7DFF848904A45D5
:10C5DC00F2D009F58039EDE7CC6875E7CC68043406
:10C5EC0072E7CC6808346FE7CC680C346CE7002435
:10C5FC006AE7042468E70022AAE70122A8E70222DE
:10C60C00A6E700BF001002400004014000080140F2
:10C61C0000002210000031100AB1016170470904BA
:10C62C00FBE7F8B50446E0B190F8913203F0FF0255
:10C63C001BB980F8902202F0B5FC032384F89132E8
:10C64C0000232546637155F8040B01F05FF995E85A
:10C65C000E00206801F04AF9014628B1022384F843
:10C66C00913201252846F8BD206801F059F90028BF
:10C67C00F4D102460127267904F11003C1B28E428F
:10C68C0003F1280318D800210A4604F5A873C8B290
:10C69C00864203F128031BD895E80E00206801F0B0
:10C6AC0041F905460028D9D101236073206884F82C
:10C6BC00913201F01AFBD5E743E9062203F8277CF7
:10C6CC0003F8281C03F8252C43F8102C0130D5E76F
:10C6DC0043E9062203F8272C03F8280C03F8252C31
:10C6EC0043F8102C0131D2E738B590F8903204465B
:10C6FC00012B10D0012580F89052006801F0FDF854
:10C70C002946204602F03BFD206801F0ECFA00209F
:10C71C0084F8900238BD0220FCE710B590F89032F6
:10C72C000446012B10D0012380F89032006801F0F0
:10C73C00EDF80021204602F022FD206801F0D5FA28
:10C74C00002084F8900210BD0220FCE710B590F890
:10C75C0090220446012A0AD00122417380F89022CB
:10C76C00006801F0BAFA002084F8900210BD022093
:10C77C00FCE700002DE9F04F044685B0006801F09D
:10C78C00B6FA10F4004500F04F842825C64E2068F8
:10C79C00B0F844301F0402D405B0BDE8F08FB0F8F7
:10C7AC00443013F00F0799B240F0C08011F0100123
:10C7BC0026D103889BB2334043F400430380B0F886
:10C7CC005030227C9BB203EBC20300EB4303B3F863
:10C7DC000434626AC3F309031A44E36220466262BA
:10C7EC0002F00FFC637B002BD1D0A26A2168002AD7
:10C7FC00CDD1637B43F08003A1F84C306273C6E764
:10C80C000788BBB217F4006721D0B0F8503094F809
:10C81C0050219BB203EBC20300EB4303B3F80C347F
:10C82C00B4F85621C3F30903C4F86C3104F526712E
:10C83C0001F0A8FC22682046138823F070031B0526
:10C84C001B0D43F08003138002F0CCFB9FE719040F
:10C85C009DD5038823F070031B051B0D43F080034B
:10C86C000380B0F8503094F850219BB203EBC20314
:10C87C0000EB4303B3F80C34C3F30903C4F86C3175
:10C88C008BB1D4F8641171B1B4F8562101F07AFC73
:10C89C00D4F86431D4F86C21394613442046C4F8DA
:10C8AC00643102F0A5FB21680A8893B212053FF5AA
:10C8BC006EAF03F44053B3F5405F3FF468AFB1F88B
:10C8CC00502001F20C4092B2835AC3F309038352F5
:10C8DC00D4F860313E2B1DD95F09DB06835A08BFA3
:10C8EC0007F1FF379BB243EA87236FEA43436FEAB2
:10C8FC0053439BB283520B8823F4804323F0700381
:10C90C001B041B0C83F4405343F4004343F080039B
:10C91C000B803CE70BB9835AE7E75F08DB07835AC8
:10C92C0048BF01379BB243EA8723E2E730F8273050
:10C93C0019041FFA83F840F1F68030F8273005FB14
:10C94C00074123F070031B051B0D43F0800320F8F7
:10C95C00273091F85C3100F5806EBBB9B0F85030DF
:10C96C0091F850219BB2063303EBC2033EF81390AF
:10C97C00C9F30909B9F1000F00F0BA804B46B1F8C0
:10C98C005621D1F8641101F0FDFBB1E091F853315F
:10C99C0091F85021022B40F08980B0F850904FEA6A
:10C9AC00C20B1FFA89F918F4804AD1F86831D944BE
:10C9BC0008F0400C3CD009F102093EF81990C9F37B
:10C9CC000909994513D90023C1F8683130F8223090
:10C9DC0023F4804323F070031B041B0C83F40053DB
:10C9EC0043F4004343F0800320F8223005E0A3EB2E
:10C9FC000903C1F86831002BE8D0BCF1000F0DD051
:10CA0C0030F8223023F4E04323F070031B041B0C9A
:10CA1C0043F4004343F0C00320F82230B9F1000F77
:10CA2C0066D0282101FB07414B46B1F85821A8E7F5
:10CA3C0009F106093EF81990C9F30909994512D96B
:10CA4C00C1F868A130F8223023F4804323F070033E
:10CA5C001B041B0C83F4005343F4004343F080038A
:10CA6C0020F8223005E0A3EB0903C1F86831002B54
:10CA7C00E8D0BCF1000F0DD130F8223023F4E043A4
:10CA8C0023F070031B041B0C43F4004343F0C0035E
:10CA9C0020F82230B9F1000F2AD0282101FB0741E0
:10CAAC004B46B1F85A216CE70F8FFFFF30F822305C
:10CABC0023F4E04323F070031B041B0C43F40043EA
:10CACC0043F0C00320F8223091F8503130F8232085
:10CADC00DB0012F4804FB0F8502092B254D00232E6
:10CAEC0013443EF81390C9F30909B9F1000F9BD117
:10CAFC0005FB07F16318D3F86C214A44C3F86C2189
:10CB0C00D3F864214A44C3F86421D3F868211AB1DC
:10CB1C00D3F86031994541D205FB0743204693F881
:10CB2C00501102F065FA18F0800F20683FF42FAE18
:10CB3C0030F8273005FB07FC9BB2334043F400432D
:10CB4C0020F8273004EB0C03DA7C012A56D10021A3
:10CB5C0007FB0552A1501A7F92B318F040085A7C7B
:10CB6C0036D012BBB0F850201B7C92B21B0100F2E5
:10CB7C00044010441A5AC2F309021A521A5A92B2B9
:10CB8C0042F400421A521BE0063213443EF8139052
:10CB9C00C9F30909B9F1000FAAD081E701F5A87111
:10CBAC002068214401F0B9F8BDE7012A08D1B0F89A
:10CBBC0050201B7C92B200F204401B01104419520D
:10CBCC00282303FB0743197C204602F01AFADEE502
:10CBDC003AB9B0F850201B7C92B21B0100F20C4009
:10CBEC00C7E7012AECD1B0F850201B7C92B200F2BE
:10CBFC000C401B01104423F80080E1E7197C18F469
:10CC0C00807E9A6A4FEAC10A00F580691BD1B0F8A0
:10CC1C005070BFB25744023739F81770C7F3090781
:10CC2C00974202D3C3F828E0CEE7D21B9A625A6A25
:10CC3C000CF110013A445A62DA6A21443A44DA623D
:10CC4C0001F06BF8A3E5B0F850C018F0400E1FFAD5
:10CC5C008CFCD44408F4804800F0F4800CF1020CF5
:10CC6C0039F81CC01FFA88F8CCF3090C94452CBF7A
:10CC7C000022A2EB0C029A62002A5BD1282303FB50
:10CC8C0007435B7C002B41D1B0F8502000F2044CE0
:10CC9C0092B20B0194443CF80320C2F309022CF825
:10CCAC0003203CF803206FEA42426FEA524292B2F0
:10CCBC002CF80320B0F8502000F20C4092B2104433
:10CCCC00C25AC2F30902C252C25A6FEA42426FEA16
:10CCDC00524292B2C252204602F093F9B8F1000FC0
:10CCEC0000F0F480282303FB07432268197C32F8F8
:10CCFC00213023F4E04323F070031B041B0C43F49A
:10CD0C00404343F0800322F82130DFE0012BE2D1D5
:10CD1C00B0F850E000F2044C1FFA8EFEF4440B0104
:10CD2C002CF80320B0F850C000F20C401FFA8CFC19
:10CD3C006044CFE7B8F1000F0DD030F8212022F479
:10CD4C00E04222F070021204120C42F4404242F013
:10CD5C00800220F821204FF0280808FB074898F89B
:10CD6C003420012A40F0B280D8F8242002EB0C0EBB
:10CD7C00C8F824E0DA6A6244DA62D8F83030D8F8BD
:10CD8C002020934235D39B1AC8F83030282303FB5C
:10CD9C00074393F811C093B2BCF1000F45D1B0F822
:10CDAC00508000F2044C1FFA88F8C44409013CF886
:10CDBC0001803E2AC8F309082CF8018025D94FEAD6
:10CDCC005218D2063CF8012008BF08F1FF3892B285
:10CDDC0042EA88226FEA42426FEA524292B22CF83F
:10CDEC000120282202FB0742128B714600F085FFBE
:10CDFC006CE01BB9624688F83430C7E7002288F82B
:10CE0C003420C8F830201A46C0E712B93CF801208B
:10CE1C00E0E74FEA5208D2073CF8012048BF08F17E
:10CE2C00010892B242EA8822D8E7BCF1010FD8D1AE
:10CE3C00B0F850C000F204421FFA8CFC62440901A5
:10CE4C005352CEE70CF1060C39F81CC01FFA88F8C7
:10CE5C00CCF3090C94458CBF7246A2EB0C029A627F
:10CE6C00002A5DD1282303FB07435B7C002B43D1B5
:10CE7C00B0F8502000F2044C92B20B0194443CF8F0
:10CE8C000320C2F309022CF803203CF803206FEABC
:10CE9C0042426FEA524292B22CF80320B0F8502072
:10CEAC0000F20C4092B21044C25AC2F30902C252B0
:10CEBC00C25A6FEA42426FEA524292B2C2522046C2
:10CECC0002F09FF8B8F1000F3FF40CAF282303FBDE
:10CEDC0007432268197C32F8213023F4E04323F015
:10CEEC0040031B041B0C83F0300343F4004343F05A
:10CEFC00800322F821304AE4012BE0D1B0F850E055
:10CF0C0000F2044C1FFA8EFEF4440B012CF80320A3
:10CF1C00B0F850C000F20C401FFA8CFC6044CDE716
:10CF2C00B8F1000F0DD130F8212022F4E04222F0AC
:10CF3C0070021204120C42F4404242F0800220F8BB
:10CF4C0021204FF0280808FB074898F83420012AC4
:10CF5C00BCD1D8F8242002EB0C0EC8F824E0DA6A15
:10CF6C006244DA62D8F83030D8F82020934232D3B9
:10CF7C009B1AC8F83030282303FB074393F811C0E1
:10CF8C0093B2BCF1000F42D1B0F8508000F20C4CBF
:10CF9C001FFA88F8C44409013CF801803E2AC8F302
:10CFAC0009082CF8018022D94FEA5218D2063CF815
:10CFBC00012008BF08F1FF3892B242EA88226FEADA
:10CFCC0042426FEA524292B22CF80120282202FB14
:10CFDC000742528B09E71BB9624688F83430CAE71E
:10CFEC000022C8F8302088F834201A46C3E712B95A
:10CFFC003CF80120E3E74FEA5208D2073CF8012045
:10D00C0048BF08F1010892B242EA8822DBE7BCF182
:10D01C00010FDBD1B0F8502000F20C4C92B29444CA
:10D02C000A012CF80230D1E7460512D522682046B9
:10D03C00B2F8443023F480631B041B0CA2F8443078
:10D04C0001F0EBFF2946204605B0BDE8F04FFFF795
:10D05C007DBB41040AD52268B2F8443023F48043E6
:10D06C001B041B0CA2F84430FFF796BB820405D5B9
:10D07C002268B2F8443023F40053F1E7C30419D505
:10D08C0022682046B2F8403023F004031B041B0C2A
:10D09C00A2F84030B2F8403023F008031B041B0CFC
:10D0AC00A2F8403001F0DCFF2268B2F8443023F4DF
:10D0BC008053D5E7070548D56846236806461946C8
:10D0CC001A4603F1200532F8047B954226F8027BC0
:10D0DC00F9D1B3F8402092B242F00102A3F84020FB
:10D0EC00B3F8402022F001021204120CA3F84020E5
:10D0FC00B3F844205605FBD5B3F8442022F48062E3
:10D10C001204120CA3F8442030F8022B21F8042B43
:10D11C008D42F9D1B3F84020204692B242F0080279
:10D12C00A3F84020B3F8442022F400621204120C3D
:10D13C00A3F84420B3F8402092B242F00402A3F8C2
:10D14C00402001F07DFFFFF727BB82050DD522683B
:10D15C002046B2F8443023F400731B041B0CA2F8D5
:10D16C00443001F056FFFFF717BBC3057FF514AB36
:10D17C002268B2F8443023F4807371E770B5282428
:10D18C00054601F00700444311F0800F14BF04F171
:10D19C00100104F5A87105EB040615BF0124002449
:10D1AC00747486F8514114BF49194919022BCB707C
:10D1BC0008BF0023087008BF0B710A6195F8903204
:10D1CC00012B09D00123286885F8903200F0BCFBB4
:10D1DC00002085F8900270BD0220FCE770B5282471
:10D1EC00002601F007014C43051985F8501104F590
:10D1FC00A8710144C5E95923C5F86C6185F85161E2
:10D20C00006800F08AFD304670BD70B5282501F02D
:10D21C0007014D4344190026C4E909230122217456
:10D22C0005F11001014484F834202363E662627432
:10D23C00006800F072FD304670BD38B5037901F01E
:10D24C000705AB4204462AD311F0800F4FF0280398
:10D25C001CD001226B4303F11001034401445A74A6
:10D26C0001230D708B7094F890229A4219D020688B
:10D27C0084F8903200F0C8FC25B9206804F52671BA
:10D28C0000F039FD002084F8900238BD00224B4399
:10D29C0003F5A8710344014483F85121E0E7012010
:10D2AC00F3E70220F1E738B5027901F00F039A4257
:10D2BC00044626D3282301F00702534311F0800FB4
:10D2CC0014BF03F1100103F5A87118444FF00005C9
:10D2DC0015BF012300230919091914BF437480F8E1
:10D2EC0051318D700A7094F89032012B0BD00123C0
:10D2FC00206884F8903200F0A7FC284684F89052FD
:10D30C0038BD0120FCE70220FAE710B5282411F003
:10D31C00800F1BBF01F0070104FB010004FB01009F
:10D32C00103008BF00F5A87099B21AB90273C18009
:10D33C00002010BD012283600273F9E72DE9F3414F
:10D34C00054638B30368DB0710D42B689F075ED4FF
:10D35C002B68190700F195802B685A0700F1C180E2
:10D36C00EB69002B40F02C81002029E0904C636885
:10D37C0003F00C03042B07D0636803F00C03082B99
:10D38C000AD16368DE0307D523689C03DDD56B687F
:10D39C00002BDAD1012013E06B68B3F5803F12D17A
:10D3AC00236843F480332360FEF7E6FF06462368C8
:10D3BC009803CAD4FEF7E0FF801B6428F7D903203A
:10D3CC0002B0BDE8F0819BB9236823F4803323605D
:10D3DC00236823F480232360FEF7CEFF06462368E0
:10D3EC009903B2D5FEF7C8FF801B6428F7D9E6E78E
:10D3FC00B3F5A02F236803D143F480232360CFE738
:10D40C0023F480332360236823F48023CBE7684C18
:10D41C00636813F00C0F07D0636803F00C03082B40
:10D42C0010D16368DA030DD423689B0702D52B69EE
:10D43C00012BAFD123686A6923F0F80343EAC203D6
:10D44C00236085E72A695B4B6AB101221A60FEF7FB
:10D45C0093FF064623689F07ECD4FEF78DFF801BD5
:10D46C000228F7D9ABE71A60FEF786FF0646236859
:10D47C0098077FF56DAFFEF77FFF801B0228F6D96A
:10D48C009DE7AA694A4E4B4BE2B10122C3F88024B6
:10D49C00FEF772FF0446736A9B070DD54FF4FA52E0
:10D4AC00454B1B68B3FBF2F3019300BF019B5A1E63
:10D4BC000192002BF9D14FE7FEF75EFF001B02280B
:10D4CC00E9D97CE7C3F88024FEF756FF0446736A5B
:10D4DC009F077FF541AFFEF74FFF001B0228F6D9DF
:10D4EC006DE7334CE369D80024D40127E36943F09A
:10D4FC008053E361E36903F080530093009B2F4E4C
:10D50C003368D90518D5EB68012B26D1236A43F073
:10D51C0001032362FEF730FF41F288380646236A86
:10D52C009B073FD5002F3FF41BAFE36923F08053DB
:10D53C00E36115E70027E2E7336843F48073336057
:10D54C00FEF71AFF80463368DA05DCD4FEF714FFC9
:10D55C00A0EB08006428F6D931E7ABB9236A41F295
:10D56C00883823F001032362236A23F00403236227
:10D57C00FEF702FF0646236A9807D3D5FEF7FCFE9A
:10D58C00801B4045F7D91AE7052B236A03D143F0DA
:10D59C0004032362BAE723F001032362236A23F016
:10D5AC000403B6E7FEF7E8FE801B4045B7D906E753
:10D5BC0000100240000042420000002000700040B9
:10D5CC002A4C626802F00C02082A3ED00022022B80
:10D5DC00274B1A662CD1FEF7CFFE0646236899011D
:10D5EC0020D42B6AB3F5803F05D16268A96822F478
:10D5FC0000320A436260696A62680B4322F4741257
:10D60C001343012263601A4B1A66FEF7B5FE0546FA
:10D61C0023689A013FF5A8AEFEF7AEFE401B022828
:10D62C00F6D9CCE6FEF7A8FE801B0228D6D9C6E6B2
:10D63C00FEF7A2FE054623689B017FF595AEFEF72B
:10D64C009BFE401B0228F6D9B9E6012B3FF4A2AE93
:10D65C0060682B6A00F480329A427FF49BAE6B6A4E
:10D66C0000F47010C01A18BF0120A9E60010024087
:10D67C00000042420D4A536803F00C01082912D1F4
:10D68C000B48C3F38341DB03405C09D55368094A5B
:10D69C00C3F340435043084AD35CB0FBF3F07047EC
:10D6AC00064B584370470348704700BF00100240B8
:10D6BC000EF2010800127A000CF2010800093D007C
:10D6CC002DE9F0410D46044610B90120BDE8F0816A
:10D6DC00444A136803F007038B4228D321688E0752
:10D6EC0030D4CA0743D43F4A136803F00703AB4254
:10D6FC0065D822683C4D12F0040F6CD1130706D587
:10D70C006B68226923F4605343EAC2036B60FFF732
:10D71C00B1FF6B68354AC3F30313D35CD840344B69
:10D72C001860344B1868FEF7E5FD0020CEE713684F
:10D73C0023F007030B431360136803F007038B42BA
:10D74C00C3D1CBE7284B11F0040F1EBF5A6842F42B
:10D75C00E0625A60080742BF5A6842F460525A604D
:10D76C005A68A06822F0F00202435A60B9E7626876
:10D77C001D4E012A33681AD113F4003FA5D07368EB
:10D78C0041F2883823F0030313437360FEF7F4FD72
:10D79C0007467368626803F00C03B3EB820FA2D0E8
:10D7AC00FEF7EAFDC01B4045F3D903208EE7022AA1
:10D7BC0002D113F0007FE1E713F0020FDEE71368EC
:10D7CC0023F007032B431360136803F00703AB42EA
:10D7DC007FF47BAF8DE76B68E16823F4E0630B4368
:10D7EC006B608BE70020024000100240FCF1010846
:10D7FC00000000200800002003682DE9F3410546D5
:10D80C00D80721D5364CE369D9002BD40126E3691E
:10D81C0043F08053E361E36903F080530193019B70
:10D82C00304F3B68DA051FD5236A6A6813F44073DE
:10D83C002ED1236A6A6823F44073134323621EB10A
:10D84C00E36923F08053E3612A68910706D52449E4
:10D85C00A8684B6823F4404303434B60D30636D48B
:10D86C00002012E00026DBE73B6843F480733B604A
:10D87C00FEF782FD80463B68DB05D5D4FEF77CFDC8
:10D88C00A0EB08006428F6D9032002B0BDE8F081B3
:10D89C0002F440729A42CCD00120134A236AC2F897
:10D8AC004004002023F44071DF07C2F840042162D9
:10D8BC00BFD5FEF761FD41F288380746236A980709
:10D8CC00B7D4FEF759FDC01B4045F7D9DCE7044A35
:10D8DC00E968536823F480030B435360C0E700BF2F
:10D8EC0000100240007000400000424284B004A8C6
:10D8FC0000E90E00002004B0704703464FF43F428D
:10D90C000020A3F84400A3F840207047B0F8403042
:10D91C0023F47C535B045B0CA0F840300020704770
:10D92C00002070471FB5044604A800E90E00002033
:10D93C000123A4F84030A4F84000A4F84400A4F853
:10D94C00500004B010BD0000F0B50A78CD7830F866
:10D95C002240034624F4EC4424F070042404240CE8
:10D96C00032D03D8DFE805F041494745012048F273
:10D97C008006344323F8224033F822409F4FA4B250
:10D98C003C401443344323F822400C7B03EB021C31
:10D99C00002C40F08D80CC884E78640864007EB3F7
:10D9AC00B3F8501089B26144A1F8004433F8221046
:10D9BC00490609D533F8221089B2394041F40041A7
:10D9CC0041F0C00123F8221033F822108C4C89B29C
:10D9DC00012D01EA040101D081F0200141F4004144
:10D9EC0041F0800123F822104CE0284644F40074E6
:10D9FC00BDE744F4C0640020B9E744F48064FAE75E
:10DA0C00B3F850500969ADB26544A5F80844B3F8B1
:10DA1C0050403E29A4B26444B4F80C54C5F3090533
:10DA2C00A4F80C542FD94D09CE06B4F80C1408BF29
:10DA3C0005F1FF3589B241EA85216FEA41416FEA70
:10DA4C00514189B2A4F80C1433F822104F040DD5AF
:10DA5C0033F8221021F4E04121F070010904090C83
:10DA6C0041F4404141F0800123F82210654CC2B9C9
:10DA7C001A8892B2224082F4405242F4004242F0A0
:10DA8C0080021A80F0BD11B9B4F80C14D5E74D081A
:10DA9C00C907B4F80C1448BF013589B241EA852195
:10DAAC00CFE733F8221089B2214081F4005195E779
:10DABC00022D33F822405BD1A4B23C4044F4014423
:10DACC0044F0800423F82240B3F850400E89A4B2ED
:10DADC00760864447600A4F800644E89B3F850408C
:10DAEC007608A4B264447600A4F808644978002946
:10DAFC0048D133F822104E040DD533F8221021F4FE
:10DB0C00E04121F070010904090C41F4404141F05D
:10DB1C00800123F8221033F822104D060DD533F86E
:10DB2C00221021F4E04121F070010904090C41F4A8
:10DB3C00004141F0C00123F8221048F2800433F870
:10DB4C00221021F4804121F070010904090C81F4A8
:10DB5C004051214323F8221033F8221021F4E041E4
:10DB6C0021F040010904090C0C4323F8224089E7F9
:10DB7C0024F4E24424F070042404240C264323F8F7
:10DB8C002260A1E733F822104C040DD533F8221093
:10DB9C0021F4E04121F070010904090C41F44041E9
:10DBAC0041F0800123F8221033F8221049060DD5DC
:10DBBC0033F8221021F4E04121F070010904090C22
:10DBCC0041F4004141F0C00123F8221033F8221037
:10DBDC000B4C89B22140012D18BF81F0200141F47A
:10DBEC00004141F0800123F8221033F8221021F477
:10DBFC00804121F070010904090CEFE68F8FFFFFC3
:10DC0C00BF8FFFFF8FBFFFFF4B780A788BB130F8C7
:10DC1C00223023F4E04323F040031B041B0C83F05D
:10DC2C00100343F4004343F0800320F8223000201B
:10DC3C00704730F8223023F4804323F070031B0428
:10DC4C001B0C83F48053ECE70B7B3BBB4B780A78C3
:10DC5C0033B330F822305B060DD530F8223023F484
:10DC6C00E04323F070031B041B0C43F4004343F00C
:10DC7C00C00320F82230CB78012B0FD030F82230A3
:10DC8C0023F4E04323F040031B041B0C83F020031C
:10DC9C0043F4004343F0800320F822300020704707
:10DCAC0030F822305B040DD530F8223023F4E043F9
:10DCBC0023F070031B041B0C43F4404343F080031C
:10DCCC0020F8223030F8223023F4804323F0700304
:10DCDC001B041B0C83F44053DAE711B98023A0F822
:10DCEC004C30002070470020704700207047B0F87F
:10DCFC00440080B270470020704700EB42000133B3
:10DD0C0000F580605B0800EB8303834200D1704711
:10DD1C0031F8022B20F8042BF7E72DE9F0474B786C
:10DD2C000446012B0D460A7B40F01881D1F8109067
:10DD3C008F6949694F4528BF4F460ABBBFB2EA8875
:10DD4C003B46FFF7DAFFB4F85000297880B204F2B2
:10DD5C000442090102448F522A7834F8223023F409
:10DD6C00E04323F040031B041B0C83F03003002022
:10DD7C0043F4004343F0800324F82230BDE8F087DD
:10DD8C00EB7895F800E0022B2E6A4FEA0E1C40F05F
:10DD9C00D080B14530F82E2080F0B48022F4E042DF
:10DDAC0022F070021204120C42F4014242F0800282
:10DDBC0020F82E2030F82E80B0F850E0F61B18F02A
:10DDCC0040082E6201EB070ABBB21FFA8EFE4ED042
:10DDDC0000F20C42724422F80C306A89FFF78DFF76
:10DDEC00B14536BFF31B00233E466A782B62C5F85B
:10DDFC0014A0B3B27ABBB4F85020287892B204F2D3
:10DE0C00044100011144425A3E2EC2F3090242520F
:10DE1C0014D9425A7709F60608BF07F1FF3792B2B8
:10DE2C0042EA87226FEA42426FEA524292B242526F
:10DE3C002A8951462046FFF760FF8DE70EB9425AFA
:10DE4C00F0E7F207425A4FEA560748BF013792B241
:10DE5C0042EA8722EAE7012AEAD1B4F8500029788D
:10DE6C0080B204F20442090102448B52E0E700F252
:10DE7C000442724422F80C302A89FFF73EFFB14568
:10DE8C0036BFF31B43463E466A782B62C5F814A096
:10DE9C00B3B25ABBB4F85020287892B204F20C41B9
:10DEAC0000011144425A3E2EC2F30902425210D9CB
:10DEBC00425A7709F60608BF07F1FF3792B242EAD9
:10DECC0087226FEA42426FEA524292B242526A8908
:10DEDC00AFE70EB9425AF4E7F207425A4FEA560737
:10DEEC0048BF013792B242EA8722EEE7012AEED10F
:10DEFC00B4F85000297880B204F20C4209010244B3
:10DF0C008B52E4E722F4E24222F070021204120C6B
:10DF1C0042F4004242F0800220F82E20B0F850303B
:10DF2C0000F204429BB21A44B3B222F80C302A8994
:10DF3C0081E7F61B30F82E202E62B0F85060BBB291
:10DF4C005706B6B206D500F20C42324422F80C3019
:10DF5C006A8970E700F204423244E6E7002A3BD1BA
:10DF6C008B690969B0F850008B4284BF5A1A0B4672
:10DF7C002978AA6180B204F20C4209010244885A41
:10DF8C003E2BC0F3090088521AD95809DE068B5A69
:10DF9C0008BF00F1FF309BB243EA80236FEA434392
:10DFAC006FEA53439BB28B522A7834F8223023F415
:10DFBC00804323F070031B041B0C83F44053D6E600
:10DFCC000BB98B5AEAE75808DB078B5A48BF01306C
:10DFDC009BB243EA8023E5E7CA78022A70D1002B72
:10DFEC0038D1B0F850200B7892B200F204401B01EB
:10DFFC001044C25AC2F30902C2520A693E2A46D9D7
:10E00C00C15A5609D70608BF06F1FF3689B241EA54
:10E01C0086216FEA41416FEA514189B2C152B4F88D
:10E02C00500004F20C4180B20144C85A3E2AC0F39D
:10E03C000900C85238D95009D706CA5A08BF00F18E
:10E04C00FF3092B242EA80226FEA42426FEA5242B9
:10E05C0092B2CA52EB69002BA6D044F240032A7844
:10E06C0034F8221003EA01008B4301D000289BD125
:10E07C0034F8223023F4E04323F070031B041B0C10
:10E08C0043F4004343F0C00324F822308CE70AB970
:10E09C00C15ABEE7D107C15A4FEA520648BF0136F2
:10E0AC0089B241EA8621B8E70AB9CA5ACCE75008C6
:10E0BC00D607CA5A48BF013092B242EA8022C7E75B
:10E0CC00012A5DD18A6909698A4294BF0020501ADD
:10E0DC00A86188BF0A46002B7FF466AFB4F85010D5
:10E0EC002B7889B204F204401B010844C15A3E2A21
:10E0FC00C1F30901C1522BD9D106C15A4FEA5216AC
:10E10C0008BF06F1FF3689B241EA86216FEA414128
:10E11C006FEA514189B2C152B4F8500004F20C417B
:10E12C0080B20144C85A3E2AC0F30900C8521BD918
:10E13C005009D606CA5A08BF00F1FF3092B242EA23
:10E14C0080226FEA42426FEA524292B2CA522BE7E5
:10E15C000AB9C15ADAE7C15A5608D70748BF01367F
:10E16C0089B241EA8621D5E70AB9CA5AE9E75008CB
:10E17C00D207CA5A48BF013092B242EA8022E4E781
:10E18C000120FBE500EB4200F0B500F580605D0876
:10E19C000C4607462E46023436B9DB0744BF30F82E
:10E1AC00253001F81530F0BD37F8042B013E92B242
:10E1BC0004F8022C120A04F8012CECE71B23038050
:10E1CC00004870471800002000207047002070475E
:10E1DC000A230380004870470C00002037B5D0F8A4
:10E1EC00B842054694F81834042B55D1D4F80014D1
:10E1FC00002942D12378A3B9D4F80434012B2DD1B2
:10E20C0000230322C4F80434C4F8003484F818241E
:10E21C0084F81134A4F8123484F81424002003B0C8
:10E22C0030BD212B08D1D4F80434052B16D1D4F8E9
:10E23C000130C4F80834E3E7412B0FD1D4F804348F
:10E24C00052B0BD1D4F80100D5F8BC32C4F8080466
:10E25C00DB6898470028D3D00220E0E70023C4F8FD
:10E26C000434C4F800348DF8003001236946284684
:10E27C00ADF8063000F07DFDC2E70129C0D0D4F81E
:10E28C000804D5F8BC32023900EB81211B69204609
:10E29C00D4F804249847DDE7072BBFD10022164B96
:10E2AC0084F819241B7D13F0040309D0062384F889
:10E2BC00112484F81834A4F8122484F81434ADE72B
:10E2CC00082284F8113484F81824A4F8123484F841
:10E2DC00142400F00BFAD5F8BC329B689847BFF3B6
:10E2EC004F8F0649064BCA6802F4E0621343CB60B9
:10E2FC00BFF34F8F00BFFDE71800002000ED00E0DA
:10E30C000400FA0538B5022200250446D0F8B832CC
:10E31C0083F8182483F8142483F81054C3F8005499
:10E32C00C3F80454D0F8BC329B689847D4F8B802B0
:10E33C0000F024FF2846C4F8B85238BD10B5044686
:10E34C0040F21C4000F016FF0346C4F8B80202204D
:10E35C00C3B100224FF00061A3F81804C3F81024D5
:10E36C00A3F81404C3F80024C3F80424C3F8081455
:10E37C00C3F80C24D4F8BC325B689847003818BF3B
:10E38C000120400010BD002070470000062908B590
:10E39C0007D8D0F8BC320449186800F0F5FC0248E4
:10E3AC0008BD0020FCE700BFFC000020002373B573
:10E3BC00ADF806300B78054613F06003D0F8B84280
:10E3CC0000F02C81202B40F03C814B78062B00F286
:10E3DC003881DFE813F0FF00070030008B00D1001C
:10E3EC00E300E700CA8894F818349AB1022B01D0E4
:10E3FC00052B69D14B882846C4F8003403232146E9
:10E40C00C4F8042484F8183484F8143400F0EDFCB7
:10E41C0000201AE1052B01D0022B55D14FF4837348
:10E42C00A4F81834002384F81134A4F81234062309
:10E43C0084F81434ECE7CA88002A4FD094F81804F6
:10E44C00022801D0092843D14888C4F80424C4F810
:10E45C000004A8B9032A98BF092384F8183484F857
:10E46C0014344FF40453238041230322214684F8AF
:10E47C001104A4F81204A370284600F0A1FCC7E70D
:10E48C0001284FF0000316D0092184F8113484F8C8
:10E49C00181484F81414A4F81234D4F80864D5F8B9
:10E4AC00BC32023821465B6906EB80209847B4F8F1
:10E4BC0004240146E0E70F2284F8113484F8182470
:10E4CC00A4F8123484F81424284600F052FC9FE778
:10E4DC000023C4F80434C4F80034F5E7022384F8AC
:10E4EC00112484F81834A4F81224A1E794F81834F1
:10E4FC0004F58266032B04D0062B26D00622314667
:10E50C00BAE7D4F80434D3B10423002284F81834C5
:10E51C0084F81124A4F8122484F81434D0F8BC32F2
:10E52C00D4F800149B69D4F8080429B92278412A3C
:10E53C0002D132469847E1E732460121FAE705223B
:10E54C0084F8182484F8113409E094F81934012B58
:10E55C000AD1072284F81134002384F81824A4F873
:10E56C00123484F81424C9E7002BC7D1474A127D12
:10E57C005007C3D50222E3E794F818340A2B0BBFDB
:10E58C0002230A2300220E220CBF84F8183484F8CC
:10E59C001834C4F81024A4F8143439E7012204F513
:10E5AC00836169E794F81824092A3FF631AF4FF4D8
:10E5BC001B73D340D9077FF52BAF00230222C4F87D
:10E5CC00103484F81824A4F81424C4F80034C4F8C3
:10E5DC0004341DE794F81824092A10D84FF41B733F
:10E5EC00D340DA070BD500230222C4F8103484F888
:10E5FC001824A4F81424C4F80034C4F80434234BAD
:10E60C005B7DDB0606D5284600F070F8284600F046
:10E61C0068F8FDE64888FDF7B5FEF9E64B780B2B5C
:10E62C000FD8DFE803F0060E0E0E0E0E140E0E0EB3
:10E63C00212990F89C32032B03D102220DF1060103
:10E64C001AE7284600F095FB022002B070BD4B88FB
:10E65C001B0A212B05D1CA880D49092A28BF09227A
:10E66C000AE70022114607E790F89C32032BE8D109
:10E67C00012204F20C41FFE68B78002BE1D190F8DB
:10E68C009C22032ADDD1C4F80C34C1E6180000200A
:10E69C002A0000200020704700207047002070479F
:10E6AC0009B1C0F8BC120020704708B580B1D0F891
:10E6BC00B43213B10023C0F8B43209B1C0F8B012AF
:10E6CC000123027080F89C3200F0CEFC002008BDC3
:10E6DC000220FCE719B1C0F8B412002070470220E8
:10E6EC00704708B500F0EAFC002008BD10B50446E0
:10E6FC00D0F8B43201795B689847204600F0E7FC0B
:10E70C00002010BD08B5D0F8B43233B11B6898475F
:10E71C00003818BF0120400008BD0220FCE708B5F6
:10E72C00D0F8B4325B689847002008BD38B500F5C6
:10E73C002A750446284600F011FB012394F8A81210
:10E74C00C4F89432B4F8AE32C4F8983201F01F0316
:10E75C00012B08D0022B0BD07BB92946204600F0A8
:10E76C00FBF8002038BD2946204600F047FAF8E7B0
:10E77C002946204600F066FAF3E7204601F08001B6
:10E78C0000F0BAFCEDE770B50446164639BBD0F87C
:10E79C009422032A1CD1D0E9585295420BD9AD1AB8
:10E7AC00AA423146C0F860518CBFAAB292B200F0B6
:10E7BC0029FB002070BDD0F8B4321B6923B190F84E
:10E7CC009C22032A00D19847204600F023FBF0E757
:10E7DC00052AEED1C4F8941200F08EFCE9E7D0F8CB
:10E7EC00B4329B692BB190F89C22032A01D1984733
:10E7FC00DFE70220DEE7F8B5044613460F46002992
:10E80C0049D1D0F89422022A3AD1D0E90856B5421F
:10E81C0011D9AD1B19460562AAB200F0DEFA3B46CF
:10E82C001A461946204600F09CFC94F8A032012BA5
:10E83C002DD00020F8BDC369B3FBF6F506FB1535EA
:10E84C0065B99E420AD8D0F89822934206D22A463D
:10E85C0000F0C3FA2B46C4F89852E1E7D4F8B4326E
:10E86C00DB682BB194F89C22032A01D120469847EF
:10E87C008021204600F040FC204600F0D6FAD4E778
:10E88C0032F00403D1D1802100F036FCCDE7002317
:10E89C0084F8A032CDE7D0F8B4325B692BB190F894
:10E8AC009C22032A01D19847C3E70220C2E7002229
:10E8BC0070B50446012540261146402300F010FC9B
:10E8CC003346802100222046C4F85851C4F86461B4
:10E8DC0000F006FC0021D4F8B832A561666284F819
:10E8EC009C52C4F894126160C4F8A41223B1D4F8F9
:10E8FC00B43220465B689847002070BD017400203C
:10E90C00704790F89C3280F89D32042380F89C323A
:10E91C000020704790F89C32042B04BF90F89D3275
:10E92C0080F89C320020704708B590F89C22032A8E
:10E93C0004D1D0F8B432DB6903B19847002008BD8C
:10E94C0010B50446802100F0D7FB2046BDE81040EE
:10E95C00002100F0D1BB000037B50B78044603F062
:10E96C006003202B0D4606D0402B04D063B120460B
:10E97C00FFF7E6FF05E0D4F8B432294620469B6841
:10E98C009847002003B030BD4B78092BEFD801A27B
:10E99C0052F823F0B7EB0108EDEB01087BE9010815
:10E9AC00DFEB01087BE90108DDEA0108C9E9010890
:10E9BC007BE9010887EB01081FEB0108002349885C
:10E9CC00ADF806300B0A013B062BD0D801A252F849
:10E9DC0023F000BFFDE9010821EA01083BEA010828
:10E9EC007BE901087BE9010893EA0108A9EA01081F
:10E9FC00D0F8B0321B68207C0DF106019847BDF8A9
:10EA0C000620EB88002A5ED0002B53D1204600F064
:10EA1C0001FAB6E7027CD0F8B43232B99B6A0DF138
:10EA2C000600984702234370E9E7DB6AF7E7C9B2AF
:10EA3C0005291ED8DFE801F003090D111519D0F8CE
:10EA4C00B0325B68002BD6D191E7D0F8B0329B681E
:10EA5C00F8E7D0F8B032DB68F4E7D0F8B0321B69D5
:10EA6C00F0E7D0F8B0325B69ECE7D0F8B0329B69D4
:10EA7C00E8E7D0F8B4329B6B002B3FF478AF0DF184
:10EA8C0006029847BBE7037C002B7FF470AFD0F8ED
:10EA9C00B4320DF106005B6B9847B0E7037C002B9A
:10EAAC007FF465AFD0F8B4320DF106001B6B9847BC
:10EABC000723B8E79A4228BF1A4601462046ADF80C
:10EACC00062000F07DF9EB88002B7FF45AAF9DE710
:10EADC008B88002B7FF44BAFCB88002B7FF447AF98
:10EAEC004D887F2D3FF643AF90F89C32032B3FF4BB
:10EAFC003EAFEDB2294680F89E5200F020FB204636
:10EB0C0000F088F91DB1022384F89C3239E7012307
:10EB1C00FAE78978384D012929703FF628AF90F82B
:10EB2C009C32022B08D0032B15D0FFF709FF20468F
:10EB3C002978FFF7F4FD24E700293FF467AF0121A2
:10EB4C000323416080F89C322046FFF7DBFD02284E
:10EB5C007FF45CAF0BE731B90223416080F89C3243
:10EB6C00FFF7DDFD52E7416801293FF44FAFC9B211
:10EB7C00FFF7D5FD29786160E6E7CA88012A7FF4A2
:10EB8C00F6AE90F89C32022B0AD8002B3FF4EFAE75
:10EB9C000146002341F8083F204600F011F9F0E649
:10EBAC00032B7FF4E4AE011DF6E790F89C32013B99
:10EBBC00022B3FF6DCAECA88022A7FF4D8AED0F81E
:10EBCC00A4320146002B0CBF0123032341F80C3F58
:10EBDC00E2E74B88012B7FF4D4AEC4F8A43215E7DE
:10EBEC0090F89C32013B022B3FF6C1AE4B88012BB7
:10EBFC007FF4C7AE0023F0E7FB01002038B50B789B
:10EC0C00044603F060025B060D4601D5402A15D17F
:10EC1C0094F89C32013B022B10D82B79012B0DD888
:10EC2C00D4F8B43229469B6820469847EB881BB928
:10EC3C0010B9204600F0EEF8002038BD2046FFF752
:10EC4C007FFEF9E738B50A78044602F06002202A04
:10EC5C000B468D8806D0402A04D05AB12046FFF7C7
:10EC6C006FFE05E0D4F8B42219462046926890470E
:10EC7C00002038BD5A78E9B2012A35D0032A21D0B8
:10EC8C00002AEBD190F89C32022B44D0032BE5D117
:10EC9C00142201F00F0315F0800F02FB03034BD07D
:10ECAC009B69002BDAD0142501F07F0303FB05557B
:10ECBC00802905444BD0204600F030FA00284BD078
:10ECCC00012345E090F89C22022A1BD0032AC5D1CF
:10ECDC005A882AB94A0603D0DB880BB900F00CFA23
:10ECEC00204600F097F8C3E790F89C22022A09D03E
:10ECFC00032AB3D15B88002BBAD14D06F0D000F0BB
:10ED0C0004FAEDE74B06A9D000F0F6F98021204675
:10ED1C0000F0F2F9ACE74A06A0D12B064FF0000345
:10ED2C004FF002024CBF00F1140100F5AA710B6008
:10ED3C00204600F045F89BE7D3F85831002B8DD0D6
:10ED4C00142505FB010505F5AA750029B3D100238F
:10ED5C002B6002222946EBE72860FAE70B78037058
:10ED6C004B7843704B8843808B888380CB88C380DF
:10ED7C00704710B50446802100F0BEF92046BDE86E
:10ED8C001040002100F0B8B970B50D461646044687
:10ED9C0070B1FDF7D5F9C3B201335B0033802B7032
:10EDAC00032300206B700223013C14F8011F01B9EE
:10EDBC0070BD5A1CE954D2B20233DBB2A854F4E74A
:10EDCC001346022210B5C0E90733C0F894220A4654
:10EDDC00002100F0BDF9002010BD08B513460A460D
:10EDEC00002100F0B5F9002008BD1346032210B530
:10EDFC00C0E95733C0F894220A46002100F0B1F95B
:10EE0C00002010BD08B513460A46002100F0A9F9F0
:10EE1C00002008BD08B50423C0F8943200231A461C
:10EE2C00194600F095F9002008BD08B50523C0F877
:10EE3C00943200231A46194600F093F9002008BDBD
:10EE4C0008B500220E490F48FFF72FFC08B1FDF75B
:10EE5C00F5F90D490B48FFF73DFC08B1FDF7EEF94C
:10EE6C000A490848FFF71CFC08B1FDF7E7F905480B
:10EE7C00FFF737FC18B1BDE80840FDF7DFB908BD56
:10EE8C00A4000020FC01002034000020C000002061
:10EE9C00122301480B807047900000200423014886
:10EEAC000B8070478C000020002370B51E464D1C53
:10EEBC00040FB0F1204F34BF3034373401F8134015
:10EECC0005F813600133DCB2A2424FEA0010EFD810
:10EEDC0070BD00001A2310B50B800A4BD3F8E8075D
:10EEEC00D3F8F02780180AD0D3F8EC47064908224B
:10EEFC00FFF7DAFF042220461031FFF7D5FF034855
:10EF0C0010BD00BF00F0FF1F720000207000002039
:10EF1C0010B5044C0A4604482146FFF735FF20463D
:10EF2C0010BD00BFC00400201EF2010810B5044C37
:10EF3C000A4604482146FFF727FF204610BD00BFB4
:10EF4C00C004002029F2010810B5044C0A460448FC
:10EF5C002146FFF719FF204610BD00BFC00400205A
:10EF6C003BF2010810B5044C0A4604482146FFF751
:10EF7C000BFF204610BD00BFC004002046F2010864
:10EF8C000020704700207047002070470020704719
:10EF9C00002070470020704718B102280CBF0120D8
:10EFAC000220704707B50E4B02689A4215D103F543
:10EFBC00DA33DA69142042F40002DA610022DB69E8
:10EFCC00114603F400030193019BFDF7FFF9142094
:10EFDC0003B05DF804EBFDF729BA03B05DF804FB50
:10EFEC00005C004000F52671D0F8D402FFF79EBB00
:10EFFC00282303FB0103D0F8D402D3F86421FFF7D4
:10F00C00C2BB282303FB0103D0F8D4025A6AFFF7D2
:10F01C00F2BBD0F8D402FFF787BC10B58379044655
:10F02C00022B01D0FDF70AF9D4F8D4020121FFF725
:10F03C0065FCD4F8D402BDE81040FFF738BC0000E2
:10F04C0010B50446D0F8D402FFF75BFCA37A23B1C9
:10F05C00024A136943F00603136110BD00ED00E092
:10F06C00D0F8D402FFF756BC10B5124B0446124828
:10F07C00036008230371022383710023C0F8D44278
:10F08C00C4F8C00243810373FDF7CBFA08B1FDF756
:10F09C00D5F8002218231146D4F8C002FEF735F932
:10F0AC00582300228021D4F8C002FEF72EF900204C
:10F0BC0010BD00BF005C0040E00A002008B5D0F88D
:10F0CC00C002FDF711FBBDE80840FFF765BF08B5AE
:10F0DC00D0F8C002FDF721FBBDE80840FFF75CBF8C
:10F0EC0010B51446D0F8C0021A462346FEF746F86F
:10F0FC00BDE81040FFF750BF08B5D0F8C002FEF7CE
:10F10C009CF8BDE80840FFF747BF08B5D0F8C0022F
:10F11C00FEF7C9F8BDE80840FFF73EBF282211F002
:10F12C00800FD0F8C0321BBF01F07F0102FB01330E
:10F13C0002FB0133987C08BF93F85201704708B565
:10F14C00D0F8C002FDF702FBBDE80840FFF724BF72
:10F15C0008B5D0F8C002FEF758F8BDE80840FFF734
:10F16C001BBF08B5D0F8C002FEF738F8BDE8084060
:10F17C00FFF712BF00487047C00600207047704769
:10F18C0003460244934200D1704703F8011BF9E790
:10F19C0070B500260C4D0D4C641BA410A64209D171
:10F1AC0000F01AF800260A4D0A4C641BA410A64263
:10F1BC0005D170BD55F8043B98470136EEE755F87C
:10F1CC00043B98470136F2E798F2010898F20108DF
:10F1DC0098F201089CF20108F8B500BFF8BC08BC15
:10F1EC009E467047F8B500BFF8BC08BC9E467047F9
:10F1FC0000000000000000000102030406070809DB
:10F20C00010202030405060708090A0B0C0D0E0F78
:10F21C00101053544D3332576F726C640050524778
:10F22C0053544C20426F6F746C6F61646572004470
:10F23C00465520436F6E6669670044465520496EFB
:10F24C00746572666163650040496E7465726E61C7
:10F25C006C20466C6173682020202F307830383059
:10F26C0030303030302F36342A3030314B672C343C
:10F27C00382A3030314B672C31362A3030314B61E3
:04F28C00000000007E
:08F29000BCCEFF7F010000006D
:04F2980031C1010877
:04F29C000DC1010897
:10F2A0000024F40001000000100000000A06000223
:10F2B000000000400100000009021B00010102C023
:10F2C000320904000000FE01020609210BFF0000C4
:10F2D000041A010049E3010811E30108B9E3010838
:10F2E000E9E10108D9E10108D5E10108A1E6010839
:10F2F000A9E60108A5E6010893E30108C9E10108B0
:10F30000C9E10108C9E10108DDE1010899E301084B
:10F310001A030000000000000000000000000000D0
:10F3200000000000000000000000000004030904C9
:10F330001201000200000040830411DF00020102FC
:10F34000030100009DEE0108A9EE01081DEF010870
:10F3500039EF0108E1EE010855EF010871EF0108EE
:10F3600054F201088DEF0108A1EF010891EF0108A7
:0CF3700095EF010899EF01089DEF0108DE
:040000050801C2B577
:00000001FF
